{"abi":[{"type":"constructor","inputs":[{"name":"_weth","type":"address","internalType":"contract WETH9"}],"stateMutability":"nonpayable"},{"type":"receive","stateMutability":"payable"},{"type":"function","name":"ETH_SUPPLY","inputs":[],"outputs":[{"name":"","type":"uint256","internalType":"uint256"}],"stateMutability":"view"},{"type":"function","name":"deposit","inputs":[{"name":"amount","type":"uint256","internalType":"uint256"}],"outputs":[],"stateMutability":"nonpayable"},{"type":"function","name":"ghost_depositSum","inputs":[],"outputs":[{"name":"","type":"uint256","internalType":"uint256"}],"stateMutability":"view"},{"type":"function","name":"ghost_withdrawSum","inputs":[],"outputs":[{"name":"","type":"uint256","internalType":"uint256"}],"stateMutability":"view"},{"type":"function","name":"sendFallback","inputs":[{"name":"amount","type":"uint256","internalType":"uint256"}],"outputs":[],"stateMutability":"nonpayable"},{"type":"function","name":"weth","inputs":[],"outputs":[{"name":"","type":"address","internalType":"contract WETH9"}],"stateMutability":"view"},{"type":"function","name":"withdraw","inputs":[{"name":"amount","type":"uint256","internalType":"uint256"}],"outputs":[],"stateMutability":"nonpayable"}],"bytecode":{"object":"0x608060405234801561001057600080fd5b5060405161086938038061086983398101604081905261002f916100d6565b601180546001600160a01b0319166001600160a01b0383161790556100583063072eaf2061005e565b50610106565b60405163c88a5e6d60e01b81526001600160a01b038316600482015260248101829052737109709ecfa91a80626ff3989d68f67f5b1dd12d9063c88a5e6d90604401600060405180830381600087803b1580156100ba57600080fd5b505af11580156100ce573d6000803e3d6000fd5b505050505050565b6000602082840312156100e857600080fd5b81516001600160a01b03811681146100ff57600080fd5b9392505050565b610754806101156000396000f3fe6080604052600436106100745760003560e01c80633fc8cef31161004e5780633fc8cef3146100e357806371bf20de1461011b57806384329aab14610131578063b6b55f251461015157600080fd5b806316d91cba1461008057806317ab1ee7146100a95780632e1a7d4d146100c157600080fd5b3661007b57005b600080fd5b34801561008c57600080fd5b5061009660135481565b6040519081526020015b60405180910390f35b3480156100b557600080fd5b5061009663072eaf2081565b3480156100cd57600080fd5b506100e16100dc366004610633565b610171565b005b3480156100ef57600080fd5b50601154610103906001600160a01b031681565b6040516001600160a01b0390911681526020016100a0565b34801561012757600080fd5b5061009660125481565b34801561013d57600080fd5b506100e161014c366004610633565b610262565b34801561015d57600080fd5b506100e161016c366004610633565b61032c565b6011546040516370a0823160e01b81523060048201526101e99183916000916001600160a01b0316906370a0823190602401602060405180830381865afa1580156101c0573d6000803e3d6000fd5b505050506040513d601f19601f820116820180604052508101906101e4919061064c565b6103b5565b601154604051632e1a7d4d60e01b8152600481018390529192506001600160a01b031690632e1a7d4d90602401600060405180830381600087803b15801561023057600080fd5b505af1158015610244573d6000803e3d6000fd5b50505050806013600082825461025a919061067b565b909155505050565b61026e816001476103b5565b6011546040519192506000916001600160a01b039091169083908381818185875af1925050503d80600081146102c0576040519150601f19603f3d011682016040523d82523d6000602084013e6102c5565b606091505b50509050806103115760405162461bcd60e51b81526020600482015260136024820152721cd95b9911985b1b189858dac819985a5b1959606a1b60448201526064015b60405180910390fd5b8160126000828254610323919061067b565b90915550505050565b610338816000476103b5565b9050601160009054906101000a90046001600160a01b03166001600160a01b031663d0e30db0826040518263ffffffff1660e01b81526004016000604051808303818588803b15801561038a57600080fd5b505af115801561039e573d6000803e3d6000fd5b5050505050806012600082825461025a919061067b565b60006103c28484846103f9565b90506103f26040518060400160405280600c81526020016b109bdd5b990814995cdd5b1d60a21b815250826105bd565b9392505050565b6000818311156104715760405162461bcd60e51b815260206004820152603e60248201527f5374645574696c7320626f756e642875696e743235362c75696e743235362c7560448201527f696e74323536293a204d6178206973206c657373207468616e206d696e2e00006064820152608401610308565b8284101580156104815750818411155b1561048d5750826103f2565b60006104998484610694565b6104a490600161067b565b9050600385111580156104b657508481115b156104cd576104c5858561067b565b9150506103f2565b6104da6003600019610694565b85101580156104f357506104f085600019610694565b81115b1561050e5761050485600019610694565b6104c59084610694565b828511156105645760006105228487610694565b9050600061053083836106a7565b905080600003610545578493505050506103f2565b6001610551828861067b565b61055b9190610694565b935050506105b5565b838510156105b55760006105788686610694565b9050600061058683836106a7565b90508060000361059b578593505050506103f2565b6105a58186610694565b6105b090600161067b565b935050505b509392505050565b61060282826040516024016105d39291906106c9565b60408051601f198184030181529190526020810180516001600160e01b0316632d839cb360e21b179052610606565b5050565b61060f81610612565b50565b80516a636f6e736f6c652e6c6f67602083016000808483855afa5050505050565b60006020828403121561064557600080fd5b5035919050565b60006020828403121561065e57600080fd5b5051919050565b634e487b7160e01b600052601160045260246000fd5b8082018082111561068e5761068e610665565b92915050565b8181038181111561068e5761068e610665565b6000826106c457634e487b7160e01b600052601260045260246000fd5b500690565b604081526000835180604084015260005b818110156106f757602081870181015160608684010152016106da565b506000606082850101526060601f19601f830116840101915050826020830152939250505056fea264697066735822122066ec25cd2a7718847044f244aba632c3f8756b3ef77d6004badae8a4544b312e64736f6c63430008140033","linkReferences":{}},"methodIdentifiers":{"ETH_SUPPLY()":"17ab1ee7","deposit(uint256)":"b6b55f25","ghost_depositSum()":"71bf20de","ghost_withdrawSum()":"16d91cba","sendFallback(uint256)":"84329aab","weth()":"3fc8cef3","withdraw(uint256)":"2e1a7d4d"},"id":38}