{"abi":[{"type":"function","name":"balances","inputs":[{"name":"","type":"address","internalType":"address"}],"outputs":[{"name":"","type":"uint256","internalType":"uint256"}],"stateMutability":"view"},{"type":"function","name":"deposit","inputs":[],"outputs":[],"stateMutability":"payable"},{"type":"function","name":"getBalance","inputs":[],"outputs":[{"name":"","type":"uint256","internalType":"uint256"}],"stateMutability":"view"},{"type":"function","name":"withdraw","inputs":[],"outputs":[],"stateMutability":"nonpayable"}],"bytecode":{"object":"0x608060405234801561001057600080fd5b50610260806100206000396000f3fe60806040526004361061003f5760003560e01c806312065fe01461004457806327e235e3146100655780633ccfd60b14610092578063d0e30db0146100a9575b600080fd5b34801561005057600080fd5b50475b60405190815260200160405180910390f35b34801561007157600080fd5b506100536100803660046101d3565b60006020819052908152604090205481565b34801561009e57600080fd5b506100a76100b1565b005b6100a76101ad565b336000908152602081905260409020548061010a5760405162461bcd60e51b8152602060048201526014602482015273496e73756666696369656e742062616c616e636560601b60448201526064015b60405180910390fd5b604051600090339083908381818185875af1925050503d806000811461014c576040519150601f19603f3d011682016040523d82523d6000602084013e610151565b606091505b50509050806101995760405162461bcd60e51b81526020600482015260146024820152732330b4b632b2103a379039b2b7321022ba3432b960611b6044820152606401610101565b505033600090815260208190526040812055565b33600090815260208190526040812080543492906101cc908490610203565b9091555050565b6000602082840312156101e557600080fd5b81356001600160a01b03811681146101fc57600080fd5b9392505050565b8082018082111561022457634e487b7160e01b600052601160045260246000fd5b9291505056fea2646970667358221220b1175fb650c789f404c99c3121bc94ebff528e3a4c27754df6fed4e6a12bc14464736f6c63430008140033","linkReferences":{}},"methodIdentifiers":{"balances(address)":"27e235e3","deposit()":"d0e30db0","getBalance()":"12065fe0","withdraw()":"3ccfd60b"},"id":33}